{
  "_format": "hh-sol-artifact-1",
  "contractName": "Crowdfunding",
  "sourceName": "contracts/Crowdfunding.sol",
  "abi": [
    {
      "anonymous": false,
      "inputs": [
        {
          "indexed": false,
          "internalType": "uint256",
          "name": "campaignId",
          "type": "uint256"
        },
        {
          "indexed": false,
          "internalType": "uint256",
          "name": "raised",
          "type": "uint256"
        }
      ],
      "name": "CampaignCompleted",
      "type": "event"
    },
    {
      "anonymous": false,
      "inputs": [
        {
          "indexed": false,
          "internalType": "uint256",
          "name": "id",
          "type": "uint256"
        },
        {
          "indexed": false,
          "internalType": "address",
          "name": "creator",
          "type": "address"
        },
        {
          "indexed": false,
          "internalType": "string",
          "name": "title",
          "type": "string"
        },
        {
          "indexed": false,
          "internalType": "uint256",
          "name": "goal",
          "type": "uint256"
        },
        {
          "indexed": false,
          "internalType": "uint256",
          "name": "deadline",
          "type": "uint256"
        }
      ],
      "name": "CampaignCreated",
      "type": "event"
    },
    {
      "anonymous": false,
      "inputs": [
        {
          "indexed": false,
          "internalType": "uint256",
          "name": "campaignId",
          "type": "uint256"
        },
        {
          "indexed": false,
          "internalType": "address",
          "name": "contributor",
          "type": "address"
        },
        {
          "indexed": false,
          "internalType": "uint256",
          "name": "amount",
          "type": "uint256"
        }
      ],
      "name": "ContributionMade",
      "type": "event"
    },
    {
      "inputs": [],
      "name": "campaignCount",
      "outputs": [
        {
          "internalType": "uint256",
          "name": "",
          "type": "uint256"
        }
      ],
      "stateMutability": "view",
      "type": "function"
    },
    {
      "inputs": [
        {
          "internalType": "uint256",
          "name": "",
          "type": "uint256"
        }
      ],
      "name": "campaigns",
      "outputs": [
        {
          "internalType": "address",
          "name": "creator",
          "type": "address"
        },
        {
          "internalType": "string",
          "name": "title",
          "type": "string"
        },
        {
          "internalType": "string",
          "name": "description",
          "type": "string"
        },
        {
          "internalType": "uint256",
          "name": "goal",
          "type": "uint256"
        },
        {
          "internalType": "uint256",
          "name": "deadline",
          "type": "uint256"
        },
        {
          "internalType": "uint256",
          "name": "raised",
          "type": "uint256"
        },
        {
          "internalType": "bool",
          "name": "completed",
          "type": "bool"
        }
      ],
      "stateMutability": "view",
      "type": "function"
    },
    {
      "inputs": [
        {
          "internalType": "uint256",
          "name": "_campaignId",
          "type": "uint256"
        }
      ],
      "name": "contribute",
      "outputs": [],
      "stateMutability": "payable",
      "type": "function"
    },
    {
      "inputs": [
        {
          "internalType": "string",
          "name": "_title",
          "type": "string"
        },
        {
          "internalType": "string",
          "name": "_description",
          "type": "string"
        },
        {
          "internalType": "uint256",
          "name": "_goal",
          "type": "uint256"
        },
        {
          "internalType": "uint256",
          "name": "_duration",
          "type": "uint256"
        }
      ],
      "name": "createCampaign",
      "outputs": [],
      "stateMutability": "nonpayable",
      "type": "function"
    },
    {
      "inputs": [
        {
          "internalType": "uint256",
          "name": "_campaignId",
          "type": "uint256"
        }
      ],
      "name": "deleteCampaign",
      "outputs": [],
      "stateMutability": "nonpayable",
      "type": "function"
    },
    {
      "inputs": [
        {
          "internalType": "uint256",
          "name": "_campaignId",
          "type": "uint256"
        }
      ],
      "name": "getCampaignDetails",
      "outputs": [
        {
          "internalType": "address",
          "name": "creator",
          "type": "address"
        },
        {
          "internalType": "string",
          "name": "title",
          "type": "string"
        },
        {
          "internalType": "string",
          "name": "description",
          "type": "string"
        },
        {
          "internalType": "uint256",
          "name": "goal",
          "type": "uint256"
        },
        {
          "internalType": "uint256",
          "name": "deadline",
          "type": "uint256"
        },
        {
          "internalType": "uint256",
          "name": "raised",
          "type": "uint256"
        },
        {
          "internalType": "bool",
          "name": "completed",
          "type": "bool"
        }
      ],
      "stateMutability": "view",
      "type": "function"
    },
    {
      "inputs": [
        {
          "internalType": "uint256",
          "name": "_campaignId",
          "type": "uint256"
        },
        {
          "internalType": "address",
          "name": "_contributor",
          "type": "address"
        }
      ],
      "name": "getContribution",
      "outputs": [
        {
          "internalType": "uint256",
          "name": "",
          "type": "uint256"
        }
      ],
      "stateMutability": "view",
      "type": "function"
    },
    {
      "inputs": [
        {
          "internalType": "uint256",
          "name": "_campaignId",
          "type": "uint256"
        }
      ],
      "name": "withdrawFunds",
      "outputs": [],
      "stateMutability": "nonpayable",
      "type": "function"
    }
  ],
  "bytecode": "0x608060405234801561001057600080fd5b506119ec806100206000396000f3fe60806040526004361061007b5760003560e01c8063a318f2691161004e578063a318f26914610140578063c1cbbca714610169578063d993de6214610185578063e081dbf9146101c85761007b565b8063141961bc14610080578063155dd5ee146100c35780637274e30d146100ec5780637597019314610117575b600080fd5b34801561008c57600080fd5b506100a760048036038101906100a29190610d15565b610205565b6040516100ba9796959493929190610e3d565b60405180910390f35b3480156100cf57600080fd5b506100ea60048036038101906100e59190610d15565b610384565b005b3480156100f857600080fd5b50610101610524565b60405161010e9190610eba565b60405180910390f35b34801561012357600080fd5b5061013e60048036038101906101399190610d15565b61052a565b005b34801561014c57600080fd5b506101676004803603810190610162919061100a565b6106b2565b005b610183600480360381019061017e9190610d15565b610860565b005b34801561019157600080fd5b506101ac60048036038101906101a79190610d15565b610a6e565b6040516101bf9796959493929190610e3d565b60405180910390f35b3480156101d457600080fd5b506101ef60048036038101906101ea91906110d5565b610c10565b6040516101fc9190610eba565b60405180910390f35b60016020528060005260406000206000915090508060000160009054906101000a900473ffffffffffffffffffffffffffffffffffffffff169080600101805461024e90611144565b80601f016020809104026020016040519081016040528092919081815260200182805461027a90611144565b80156102c75780601f1061029c576101008083540402835291602001916102c7565b820191906000526020600020905b8154815290600101906020018083116102aa57829003601f168201915b5050505050908060020180546102dc90611144565b80601f016020809104026020016040519081016040528092919081815260200182805461030890611144565b80156103555780601f1061032a57610100808354040283529160200191610355565b820191906000526020600020905b81548152906001019060200180831161033857829003601f168201915b5050505050908060030154908060040154908060050154908060060160009054906101000a900460ff16905087565b60006001600083815260200190815260200160002090503373ffffffffffffffffffffffffffffffffffffffff168160000160009054906101000a900473ffffffffffffffffffffffffffffffffffffffff1673ffffffffffffffffffffffffffffffffffffffff161461042d576040517f08c379a0000000000000000000000000000000000000000000000000000000008152600401610424906111c1565b60405180910390fd5b8060060160009054906101000a900460ff1661047e576040517f08c379a00000000000000000000000000000000000000000000000000000000081526004016104759061122d565b60405180910390fd5b60008160050154116104c5576040517f08c379a00000000000000000000000000000000000000000000000000000000081526004016104bc90611299565b60405180910390fd5b600081600501549050600082600501819055503373ffffffffffffffffffffffffffffffffffffffff166108fc829081150290604051600060405180830381858888f1935050505015801561051e573d6000803e3d6000fd5b50505050565b60005481565b60006001600083815260200190815260200160002090508060000160009054906101000a900473ffffffffffffffffffffffffffffffffffffffff1673ffffffffffffffffffffffffffffffffffffffff163373ffffffffffffffffffffffffffffffffffffffff16146105d3576040517f08c379a00000000000000000000000000000000000000000000000000000000081526004016105ca90611305565b60405180910390fd5b8060060160009054906101000a900460ff1615610625576040517f08c379a000000000000000000000000000000000000000000000000000000000815260040161061c90611371565b60405180910390fd5b60016000838152602001908152602001600020600080820160006101000a81549073ffffffffffffffffffffffffffffffffffffffff02191690556001820160006106709190610c6e565b6002820160006106809190610c6e565b6003820160009055600482016000905560058201600090556006820160006101000a81549060ff021916905550505050565b600082116106f5576040517f08c379a00000000000000000000000000000000000000000000000000000000081526004016106ec906113dd565b60405180910390fd5b60008111610738576040517f08c379a000000000000000000000000000000000000000000000000000000000815260040161072f90611449565b60405180910390fd5b600081426107469190611498565b905060008081548092919061075a906114cc565b9190505550600060016000805481526020019081526020016000209050338160000160006101000a81548173ffffffffffffffffffffffffffffffffffffffff021916908373ffffffffffffffffffffffffffffffffffffffff160217905550858160010190816107cb91906116c0565b50848160020190816107dd91906116c0565b508381600301819055508181600401819055506000816005018190555060008160060160006101000a81548160ff0219169083151502179055507fdc26653af5b99b2da33e2ad69ee6600d9aeccc82b034501db4338309615ca23860005433888786604051610850959493929190611792565b60405180910390a1505050505050565b60006001600083815260200190815260200160002090508060060160009054906101000a900460ff16156108c9576040517f08c379a00000000000000000000000000000000000000000000000000000000081526004016108c090611838565b60405180910390fd5b8060040154421061090f576040517f08c379a0000000000000000000000000000000000000000000000000000000008152600401610906906118a4565b60405180910390fd5b60003411610952576040517f08c379a000000000000000000000000000000000000000000000000000000000815260040161094990611936565b60405180910390fd5b348160070160003373ffffffffffffffffffffffffffffffffffffffff1673ffffffffffffffffffffffffffffffffffffffff16815260200190815260200160002060008282546109a39190611498565b92505081905550348160050160008282546109be9190611498565b925050819055507f0a4a91237423e0a1766a761c7cb029311d8b95d6b1b81db1b949a70c98b4e08e8233346040516109f893929190611956565b60405180910390a18060030154816005015410610a6a5760018160060160006101000a81548160ff0219169083151502179055507f562099c771af1034e0fa4d272eeb12a622c0e7b284ff68212cc5ddd2c1b77d34828260050154604051610a6192919061198d565b60405180910390a15b5050565b60006060806000806000806000600160008a815260200190815260200160002090508060000160009054906101000a900473ffffffffffffffffffffffffffffffffffffffff1681600101826002018360030154846004015485600501548660060160009054906101000a900460ff16858054610aea90611144565b80601f0160208091040260200160405190810160405280929190818152602001828054610b1690611144565b8015610b635780601f10610b3857610100808354040283529160200191610b63565b820191906000526020600020905b815481529060010190602001808311610b4657829003601f168201915b50505050509550848054610b7690611144565b80601f0160208091040260200160405190810160405280929190818152602001828054610ba290611144565b8015610bef5780601f10610bc457610100808354040283529160200191610bef565b820191906000526020600020905b815481529060010190602001808311610bd257829003601f168201915b50505050509450975097509750975097509750975050919395979092949650565b60006001600084815260200190815260200160002060070160008373ffffffffffffffffffffffffffffffffffffffff1673ffffffffffffffffffffffffffffffffffffffff16815260200190815260200160002054905092915050565b508054610c7a90611144565b6000825580601f10610c8c5750610cab565b601f016020900490600052602060002090810190610caa9190610cae565b5b50565b5b80821115610cc7576000816000905550600101610caf565b5090565b6000604051905090565b600080fd5b600080fd5b6000819050919050565b610cf281610cdf565b8114610cfd57600080fd5b50565b600081359050610d0f81610ce9565b92915050565b600060208284031215610d2b57610d2a610cd5565b5b6000610d3984828501610d00565b91505092915050565b600073ffffffffffffffffffffffffffffffffffffffff82169050919050565b6000610d6d82610d42565b9050919050565b610d7d81610d62565b82525050565b600081519050919050565b600082825260208201905092915050565b60005b83811015610dbd578082015181840152602081019050610da2565b60008484015250505050565b6000601f19601f8301169050919050565b6000610de582610d83565b610def8185610d8e565b9350610dff818560208601610d9f565b610e0881610dc9565b840191505092915050565b610e1c81610cdf565b82525050565b60008115159050919050565b610e3781610e22565b82525050565b600060e082019050610e52600083018a610d74565b8181036020830152610e648189610dda565b90508181036040830152610e788188610dda565b9050610e876060830187610e13565b610e946080830186610e13565b610ea160a0830185610e13565b610eae60c0830184610e2e565b98975050505050505050565b6000602082019050610ecf6000830184610e13565b92915050565b600080fd5b600080fd5b7f4e487b7100000000000000000000000000000000000000000000000000000000600052604160045260246000fd5b610f1782610dc9565b810181811067ffffffffffffffff82111715610f3657610f35610edf565b5b80604052505050565b6000610f49610ccb565b9050610f558282610f0e565b919050565b600067ffffffffffffffff821115610f7557610f74610edf565b5b610f7e82610dc9565b9050602081019050919050565b82818337600083830152505050565b6000610fad610fa884610f5a565b610f3f565b905082815260208101848484011115610fc957610fc8610eda565b5b610fd4848285610f8b565b509392505050565b600082601f830112610ff157610ff0610ed5565b5b8135611001848260208601610f9a565b91505092915050565b6000806000806080858703121561102457611023610cd5565b5b600085013567ffffffffffffffff81111561104257611041610cda565b5b61104e87828801610fdc565b945050602085013567ffffffffffffffff81111561106f5761106e610cda565b5b61107b87828801610fdc565b935050604061108c87828801610d00565b925050606061109d87828801610d00565b91505092959194509250565b6110b281610d62565b81146110bd57600080fd5b50565b6000813590506110cf816110a9565b92915050565b600080604083850312156110ec576110eb610cd5565b5b60006110fa85828601610d00565b925050602061110b858286016110c0565b9150509250929050565b7f4e487b7100000000000000000000000000000000000000000000000000000000600052602260045260246000fd5b6000600282049050600182168061115c57607f821691505b60208210810361116f5761116e611115565b5b50919050565b7f4f6e6c792063726561746f722063616e20776974686472617700000000000000600082015250565b60006111ab601983610d8e565b91506111b682611175565b602082019050919050565b600060208201905081810360008301526111da8161119e565b9050919050565b7f43616d706169676e206973206e6f7420636f6d706c6574656420796574000000600082015250565b6000611217601d83610d8e565b9150611222826111e1565b602082019050919050565b600060208201905081810360008301526112468161120a565b9050919050565b7f4e6f2066756e647320746f207769746864726177000000000000000000000000600082015250565b6000611283601483610d8e565b915061128e8261124d565b602082019050919050565b600060208201905081810360008301526112b281611276565b9050919050565b7f4f6e6c792063726561746f722063616e2064656c657465000000000000000000600082015250565b60006112ef601783610d8e565b91506112fa826112b9565b602082019050919050565b6000602082019050818103600083015261131e816112e2565b9050919050565b7f43616e6e6f742064656c65746520636f6d706c657465642063616d706169676e600082015250565b600061135b602083610d8e565b915061136682611325565b602082019050919050565b6000602082019050818103600083015261138a8161134e565b9050919050565b7f476f616c206d7573742062652067726561746572207468616e20300000000000600082015250565b60006113c7601b83610d8e565b91506113d282611391565b602082019050919050565b600060208201905081810360008301526113f6816113ba565b9050919050565b7f4475726174696f6e206d7573742062652067726561746572207468616e203000600082015250565b6000611433601f83610d8e565b915061143e826113fd565b602082019050919050565b6000602082019050818103600083015261146281611426565b9050919050565b7f4e487b7100000000000000000000000000000000000000000000000000000000600052601160045260246000fd5b60006114a382610cdf565b91506114ae83610cdf565b92508282019050808211156114c6576114c5611469565b5b92915050565b60006114d782610cdf565b91507fffffffffffffffffffffffffffffffffffffffffffffffffffffffffffffffff820361150957611508611469565b5b600182019050919050565b60008190508160005260206000209050919050565b60006020601f8301049050919050565b600082821b905092915050565b6000600883026115767fffffffffffffffffffffffffffffffffffffffffffffffffffffffffffffffff82611539565b6115808683611539565b95508019841693508086168417925050509392505050565b6000819050919050565b60006115bd6115b86115b384610cdf565b611598565b610cdf565b9050919050565b6000819050919050565b6115d7836115a2565b6115eb6115e3826115c4565b848454611546565b825550505050565b600090565b6116006115f3565b61160b8184846115ce565b505050565b5b8181101561162f576116246000826115f8565b600181019050611611565b5050565b601f8211156116745761164581611514565b61164e84611529565b8101602085101561165d578190505b61167161166985611529565b830182611610565b50505b505050565b600082821c905092915050565b600061169760001984600802611679565b1980831691505092915050565b60006116b08383611686565b9150826002028217905092915050565b6116c982610d83565b67ffffffffffffffff8111156116e2576116e1610edf565b5b6116ec8254611144565b6116f7828285611633565b600060209050601f83116001811461172a5760008415611718578287015190505b61172285826116a4565b86555061178a565b601f19841661173886611514565b60005b828110156117605784890151825560018201915060208501945060208101905061173b565b8683101561177d5784890151611779601f891682611686565b8355505b6001600288020188555050505b505050505050565b600060a0820190506117a76000830188610e13565b6117b46020830187610d74565b81810360408301526117c68186610dda565b90506117d56060830185610e13565b6117e26080830184610e13565b9695505050505050565b7f43616d706169676e20697320616c726561647920636f6d706c65746564000000600082015250565b6000611822601d83610d8e565b915061182d826117ec565b602082019050919050565b6000602082019050818103600083015261185181611815565b9050919050565b7f43616d706169676e20646561646c696e65206861732070617373656400000000600082015250565b600061188e601c83610d8e565b915061189982611858565b602082019050919050565b600060208201905081810360008301526118bd81611881565b9050919050565b7f436f6e747269627574696f6e206d75737420626520677265617465722074686160008201527f6e20300000000000000000000000000000000000000000000000000000000000602082015250565b6000611920602383610d8e565b915061192b826118c4565b604082019050919050565b6000602082019050818103600083015261194f81611913565b9050919050565b600060608201905061196b6000830186610e13565b6119786020830185610d74565b6119856040830184610e13565b949350505050565b60006040820190506119a26000830185610e13565b6119af6020830184610e13565b939250505056fea264697066735822122048a54d3c3b1cdd9423cc2217dbe0e93334873ce9d20ad5bb6c3f6bf5dd703c5064736f6c63430008130033",
  "linkReferences": {},
  "deployedLinkReferences": {}
}